:020000040800F2
:1000000000280020B9160008491600084F160008FD
:10001000551600085B160008611600080000000075
:10002000000000000000000000000000671600084B
:1000300073160008000000007F1600088B160008E9
:100040000117000801170008011700080117000830
:100050000117000801170008011700080117000820
:100060000117000801170008011700080117000810
:100070000117000801170008011700080117000800
:1000800001170008011700080117000801170008F0
:1000900001170008011700080117000801170008E0
:1000A00001170008011700080117000801170008D0
:1000B0009916000801170008000000000117000849
:1000C00001170008000000000000000001170008F0
:1000D00000000000011700080117000800000000E0
:1000E00001170008011700080117000800000000B0
:1000F0000000000000000000000000000000000000
:0C01000000000000000000005FF808F1A3
:10010C0010B5054C237833B9044B13B10448AFF345
:10011C0000800123237010BD680000200000000047
:10012C00582D000808B5034B1BB103490348AFF326
:10013C00008008BD000000006C000020582D000855
:10014C0080B582B000AF78607B68002B22D1002292
:10015C000121BD4801F0D1FD00220221BA4801F075
:10016C00CCFD00220421B84801F0C7FD0022082173
:10017C00B54801F0C2FD00221021B34801F0BDFDCD
:10018C0000222021B04801F0B8FD01224021AE48E8
:10019C0001F0B3FD7B68012B22D100220221AA4879
:1001AC0001F0ABFD00220421A74801F0A6FD0122BD
:1001BC000121A54801F0A1FD01220821A24801F06E
:1001CC009CFD01221021A04801F097FD0122202165
:1001DC009D4801F092FD012240219B4801F08DFDCC
:1001EC007B68022B22D100220121974801F085FD6A
:1001FC0000220221944801F080FD0022082192483F
:10020C0001F07BFD002210218F4801F076FD0022C9
:10021C0040218D4801F071FD012204218A4801F032
:10022C006CFD01222021884801F067FD7B68032BBF
:10023C0022D100220121844801F05FFD002202211D
:10024C00814801F05AFD002204217F4801F055FD40
:10025C00002208217C4801F050FD002240217A4800
:10026C0001F04BFD01221021774801F046FD0122DF
:10027C002021754801F041FD7B68042B22D100221E
:10028C000221714801F039FD002204216E4801F071
:10029C0034FD002220216C4801F02FFD002240216A
:1002AC00694801F02AFD01220121674801F025FD72
:1002BC0001220821644801F020FD0122102162482E
:1002CC0001F01BFD7B68052B22D1002201215E4829
:1002DC0001F013FD002204215B4801F00EFD002209
:1002EC000821594801F009FD00222021564801F04F
:1002FC0004FD00224021544801F0FFFC01220221A0
:10030C00514801F0FAFC012210214F4801F0F5FC94
:10031C007B68062B22D1002201214B4801F0EDFC19
:10032C0000220421484801F0E8FC0022082146483C
:10033C0001F0E3FC00221021434801F0DEFC002216
:10034C002021414801F0D9FC002240213E4801F017
:10035C00D4FC012202213C4801F0CFFC7B68072B26
:10036C0022D100220121384801F0C7FC00220221D1
:10037C00354801F0C2FC00220421334801F0BDFCD9
:10038C0001220821304801F0B8FC012210212E482E
:10039C0001F0B3FC012220212B4801F0AEFC01221C
:1003AC004021294801F0A9FC7B68082B22D10022AE
:1003BC000121254801F0A1FC00220221224801F074
:1003CC009CFC00220421204801F097FC002208210B
:1003DC001D4801F092FC002210211B4801F08DFCFD
:1003EC0000222021184801F088FC002240211648E8
:1003FC0001F083FC7B68092B22D1002201211248D9
:10040C0001F07BFC002202210F4801F076FC002257
:10041C0004210D4801F071FC002208210A4801F06A
:10042C006CFC00222021084801F067FC00224021CE
:10043C00054801F062FC01221021034801F05DFC2B
:10044C0000BF0837BD4680BD000C014080B400AF32
:10045C00064B1B68012B04D1044B00221A600123AC
:10046C0000E000231846BD4680BC70478400002085
:10047C0080B400AF064B1B68012B04D1044B002247
:10048C001A60012300E000231846BD4680BC70476B
:10049C008800002080B400AF064B1B68012B04D1F0
:1004AC00044B00221A60012300E000231846BD46CD
:1004BC0080BC70478C00002080B483B000AF7860A3
:1004CC007B68002B03D10B4B01221A600CE07B687C
:1004DC00012B03D1084B01221A6005E07B68022B2B
:1004EC0002D1064B01221A6000BF0C37BD4680BCFE
:1004FC00704700BF84000020880000208C00002082
:10050C0080B582B000AF00237B607FE0444A7B68FB
:10051C0052F8232043497B6841F82320424A7B68E8
:10052C0052F823203E497B6841F823207B68002B3E
:10053C000AD180213D4801F0C9FB034619463A4ACD
:10054C007B6842F823101CE07B68012B0BD14FF425
:10055C008071364801F0BAFB03461946324A7B6873
:10056C0042F823100DE07B68022B0AD14FF4007186
:10057C002E4801F0ABFB034619462B4A7B6842F828
:10058C002310274A7B6852F8232026497B6851F8B0
:10059C0023309A4237D1224A7B6852F823202249D1
:1005AC007B6851F823309A422DD11F4A7B6852F850
:1005BC0023201F497B6851F823309A4215D01A4AE0
:1005CC007B6852F823201A497B6841F82320164A8D
:1005DC007B6852F82330002B15D1164B40F6B832FD
:1005EC001A607868FFF768FF0DE0124B1B68013B3F
:1005FC00104A13600F4B1B68002B04D10C4A7B680C
:10060C00012142F823107B6801337B607B68022B4D
:10061C007FF77CAF00BF00BF0837BD4680BD00BF71
:10062C000C0000200000002018000020000C0140ED
:10063C00240000203000002080B582B000AF78602C
:10064C007B68013B032B00F20A8201A252F823F0D3
:10065C006D06000853070008570800083D090008FC
:10066C00B94B1B68032B4AD0032B6ADC012B02D03D
:10067C00022B22D065E001228021B44801F03DFB21
:10068C0001224FF48071B14801F037FB01224FF485
:10069C000071AE4801F031FB00224021AB4801F063
:1006AC002CFBAB4B1B68AB4A82FB03129210DB1783
:1006BC00D31A1846FFF744FD44E001224FF4807131
:1006CC00A24801F01AFB01224FF480719F4801F0FF
:1006DC0014FB012280219D4801F00FFB00224021D8
:1006EC009A4801F00AFB9C4B1B689A4A82FB031246
:1006FC009210DB17D31A1846FFF722FD22E00122D5
:10070C004FF48071914801F0F8FA01224FF4007116
:10071C008E4801F0F2FA012280218C4801F0EDFAAA
:10072C0000224021894801F0E8FA8C4B1B68894A69
:10073C0082FB03129210DB17D31A1846FFF700FD49
:10074C0000E000BF8CE1804B1B68032B54D0032BC3
:10075C0079DC012B02D0022B27D074E0012240213E
:10076C007A4801F0CAFA01224FF48071774801F0FF
:10077C00C4FA01224FF40071744801F0BEFA002251
:10078C008021724801F0B9FA714B1A68714B83FBE6
:10079C0002139910D317C91A0B469B000B445B002C
:1007AC00D11A0846FFF7CCFC4EE001224FF48071C1
:1007BC00664801F0A2FA01224FF40071634801F07F
:1007CC009CFA01224021614801F097FA0022802115
:1007DC005E4801F092FA604B1A685E4B83FB021381
:1007EC009910D317C91A0B469B000B445B00D11A06
:1007FC000846FFF7A5FC27E001224FF4807153480F
:10080C0001F07BFA01224FF40071504801F075FAA7
:10081C00012240214D4801F070FA002280214B4802
:10082C0001F06BFA4D4B1A684A4B83FB021399107B
:10083C00D317C91A0B469B000B445B00D11A084610
:10084C00FFF77EFC00E000BF0AE1454B1B68032B61
:10085C004AD0032B6ADC012B02D0022B22D065E09C
:10086C0001228021394801F048FA00224FF48071AE
:10087C00364801F042FA01224FF40071334801F07E
:10088C003CFA01224021314801F037FA354B1B6804
:10089C00304A82FB03129210DB17D31A1846FFF76B
:1008AC004FFC44E000224FF48071284801F025FAF7
:1008BC0001224FF40071254801F01FFA012280211A
:1008CC00224801F01AFA01224021204801F015FAC1
:1008DC00254B1B681F4A82FB03129210DB17D31A9D
:1008EC001846FFF72DFC22E000224FF480711748C8
:1008FC0001F003FA01224FF40071144801F0FDF9E4
:10090C0001228021114801F0F8F9012240210F4801
:10091C0001F0F3F9154B1B680E4A82FB031292107F
:10092C00DB17D31A1846FFF70BFC00E000BF97E06B
:10093C000B4B1B68032B69D0032B00F38E80012B10
:10094C0016D0022B3BD088E0C000002000080140EC
:10095C0040000020676666664400002048000020C6
:10096C00BC0000204C00002050000020540000204F
:10097C00012240213C4801F0C0F901224FF4807162
:10098C00394801F0BAF900224FF40071364801F0F1
:10099C00B4F901228021344801F0AFF9334B1A68C5
:1009AC00334B83FB02139910D317C91A0B469B00C8
:1009BC000B445B00D11A0846FFF7C2FB4EE0012244
:1009CC004FF48071284801F098F900224FF400711F
:1009DC00254801F092F901224021234801F08DF9BC
:1009EC0001228021204801F088F9224B1A68204B03
:1009FC0083FB02139910D317C91A0B469B000B44A7
:100A0C005B00D11A0846FFF79BFB27E001224FF44D
:100A1C008071154801F071F900224FF400711248F1
:100A2C0001F06BF9012240210F4801F066F9012217
:100A3C0080210D4801F061F90F4B1A680C4B83FBB8
:100A4C0002139910D317C91A0B469B000B445B0079
:100A5C00D11A0846FFF774FB00E000BF00E000BFAE
:100A6C0000BF0837BD4680BD000801404C00002087
:100A7C0067666666500000205400002080B500AF09
:100A8C00B44B1B68032B00F22A8101A252F823F00D
:100A9C00AD0A0008F90A00089D0B00083F0C00087D
:100AAC0001220821AC4801F028F901221021AA48A2
:100ABC0001F023F901222021A74801F01EF9A54BD2
:100ACC0001221A604FF47A7000F090FCA34B1B6863
:100ADC00A34A82FB03129211DB17D31AA14A1360AB
:100AEC009E4B1B68184600F067FCF8E000220821BA
:100AFC00994801F002F901221021974801F0FDF804
:100B0C0001222021944801F0F8F8974B1B68012B27
:100B1C0008D14FF47A7000F069FC924B1B68013BD2
:100B2C00904A1360914B1B68012B15D14FF47A70CE
:100B3C0000F05CFC8E4B1B68894A82FB03129211FD
:100B4C00DB17D31A8B4A1360894B1B68184600F0CD
:100B5C0033FC804B03221A60FFF778FC0346012B11
:100B6C0040F0B8807B4B0C221A60834B0C221A602D
:100B7C0001220821784801F0C0F80A224FF4806164
:100B8C00754801F0BAF84FF4FA7000F02FFCA1E0B0
:100B9C0001220821704801F0B0F8002210216E48A3
:100BAC0001F0ABF8012220216B4801F0A6F86E4B46
:100BBC001B68012B08D14FF47A7000F017FC6F4BB7
:100BCC001B68013B6D4A1360684B1B68012B15D1E8
:100BDC00604B01221A604FF47A7000F007FC5F4BF7
:100BEC001B685F4A82FB03129211DB17D31A5D4A12
:100BFC0013605A4B1B68184600F0DEFBFFF726FC0F
:100C0C000346012B68D1534B0C221A605A4B0C2211
:100C1C001A6001220821504801F06FF80A224FF4A3
:100C2C0080614D4801F069F84FF4FA7000F0DEFB7A
:100C3C0052E001220821484801F05FF801221021FE
:100C4C00454801F05AF800222021434801F055F89C
:100C5C00454B1B68012B08D14FF47A7000F0C6FB92
:100C6C00444B1B68013B434A1360404B1B68012BF0
:100C7C0015D1384B02221A604FF47A7000F0B6FB93
:100C8C003F4B1B68364A82FB03129211DB17D31AB7
:100C9C003A4A13603A4B1B68184600F08DFBFFF77D
:100CAC00D5FB0346012B19D12A4B0C221A60324B6F
:100CBC000C221A6001220821274801F01EF80A2292
:100CCC004FF48061244801F018F84FF4FA7000F0EA
:100CDC008DFB03E000BF02E000BF00E000BF264B2D
:100CEC001B68032B00F2048101A252F823F000BF11
:100CFC000D0D0008950D00080B0E00087F0E000866
:100D0C0001224FF48061144800F0F7FF01224FF4E8
:100D1C000061114800F0F1FF01224FF480510E48A0
:100D2C0000F0EBFF144B03221A604FF47A7000F0C2
:100D3C00ABFB0F4B1B680A4A82FB03129211DB17A9
:100D4C00D31A104A13600A4B1B68184600F082FB3A
:100D5C00CEE000BFC000002000080140340000209D
:100D6C00D34D621040000020AC000020A8000020F1
:100D7C003C00002048000020BC0000204400002063
:100D8C00380000205400002000224FF480615948A4
:100D9C0000F0B3FF01224FF40061564800F0ADFFA4
:100DAC0001224FF48051534800F0A7FF524B1B68AF
:100DBC00012B08D14FF47A7000F066FB4F4B1B6887
:100DCC00013B4E4A13604E4B1B68012B40F08B804D
:100DDC004FF47A7000F058FB4A4B1B684A4A82FB6E
:100DEC0003129211DB17D31A484A1360454B1B6848
:100DFC00184600F02FFB464B03221A6073E00122C9
:100E0C004FF480613B4800F078FF00224FF4006102
:100E1C00384800F072FF01224FF48051354800F041
:100E2C006CFF354B1B68012B08D14FF47A7000F026
:100E3C002BFB384B1B68013B364A1360304B1B684D
:100E4C00012B52D1324B01221A604FF47A7000F010
:100E5C001BFB314B1B682C4A82FB03129211DB17D4
:100E6C00D31A264A13602C4B1B68184600F0F2FA72
:100E7C003BE001224FF480611E4800F03EFF01224E
:100E8C004FF400611B4800F038FF00224FF48051F2
:100E9C00184800F032FF184B1B68012B08D14FF497
:100EAC007A7000F0F1FA194B1B68013B174A13607A
:100EBC00134B1B68012B1AD14FF47A7000F0E4FA33
:100ECC00134B02221A60154B1B680F4A82FB03124C
:100EDC009211DB17D31A0F4A1360104B1B6818467C
:100EEC0000F0B8FA03E000BF02E000BF00E000BF72
:100EFC0000BF80BD00080140B80000204C0000205D
:100F0C00B40000203C000020D34D6210540000209F
:100F1C00BC000020500000203400002038000020CD
:100F2C0080B500AF804B1B680E2B57D00E2B00F3F7
:100F3C00F2800C2B03D00D2B00F09E80EBE00122F5
:100F4C0010217A4800F0D9FE01222021774800F0C8
:100F5C00D4FE01224FF40061744800F0CEFE012251
:100F6C004FF48051714800F0C8FE714B1B68012B87
:100F7C000CD14FF4FA7000F039FA08216B4800F0EC
:100F8C00D4FE4FF48061694800F0CFFEFFF75EFAA3
:100F9C000346012B09D14FF4FA7000F027FA654B88
:100FAC0000221A60604B0E221A60FFF761FA0346AA
:100FBC00012B04D15F4B1B6801335E4A1360FFF7B2
:100FCC0069FA0346012B40F0A8805A4B1B684FF47A
:100FDC007A7202FB03F3584A13609EE00122082147
:100FEC00524800F08AFE01222021504800F085FE74
:100FFC0001224FF480614D4800F07FFE01224FF436
:10100C0080514A4800F079FE494B1B68012B0CD1EA
:10101C0041F2883000F0EAF91021444800F085FED6
:10102C004FF40061414800F080FEFFF70FFA0346D1
:10103C00012B09D13F4B00221A604FF4FA7000F0DB
:10104C00D5F9394B0D221A60FFF712FA0346012B22
:10105C0004D1384B1B680133364A1360FFF71AFA78
:10106C000346012B5BD1334B1B684FF47A7202FBA6
:10107C0003F3324A136052E0012208212B4800F09E
:10108C003CFE01221021294800F037FE01224FF4CA
:10109C008061264800F031FE01224FF400612348A4
:1010AC0000F02BFE224B1B68012B0CD141F2883037
:1010BC0000F09CF920211D4800F037FE4FF48051C0
:1010CC001A4800F032FEFFF7C1F90346012B0AD192
:1010DC00184B00221A60144B01221A60164B1B6825
:1010EC00184600F069F9FFF7C3F90346012B04D148
:1010FC00104B1B6801330F4A1360FFF7CBF9034603
:10110C00012B0ED10B4B1B684FF47A7202FB03F3CD
:10111C000B4A136005E000BF04E000BF02E000BF13
:10112C0000E000BF00BF80BDC000002000080140EF
:10113C00AC0000209000002034000020380000207B
:10114C003C00002080B582B000AF00F0D5FA00F072
:10115C0031F800F0B7F800F069F8124801F036FAEF
:10116C00114B00221A60114B00221A60322000F041
:10117C0057F901237B600E4B1B68012B0DD1FA2014
:10118C0000F04EF97B685A1C7A601846FFF754FA47
:10119C007B68042B01DD01237B60FFF76FFCFFF7FD
:1011AC00BFFEE8E7C4000020C0000020BC00002007
:1011BC00B000002080B590B000AF07F118032822D2
:1011CC000021184601F0BAFD3B1D00221A605A603E
:1011DC009A60DA601A610223BB610123BB6210239F
:1011EC00FB6200237B6307F11803184600F0B6FD81
:1011FC000346002B01D000F0D9F80F237B600023AD
:10120C00BB600023FB6000233B6100237B613B1D23
:10121C000021184601F022F80346002B01D000F003
:10122C00C5F800BF4037BD4680BD000080B586B014
:10123C0000AF07F1080300221A605A609A60DA6066
:10124C003B4600221A605A601D4B4FF080421A60D8
:10125C001B4B41F63F725A60194B00229A60184B97
:10126C000922DA60164B00221A61154B00229A6192
:10127C00134801F05BF90346002B01D000F096F8FF
:10128C004FF48053BB6007F1080319460C4801F07A
:10129C00F1FA0346002B01D000F088F800233B60E4
:1012AC0000237B603B461946054801F0B9FC034618
:1012BC00002B01D000F07AF800BF1837BD4680BD76
:1012CC00C400002080B586B000AF07F108030022EF
:1012DC001A605A609A60DA602B4B9B692A4A43F079
:1012EC0004039361284B9B6903F004037B607B68C8
:1012FC00254B9B69244A43F008039361224B9B695D
:10130C0003F008033B603B68012238211F4800F0C2
:10131C00F4FC00224FF47F511C4800F0EEFC00223C
:10132C004FF67F411A4800F0E8FC43F6F873BB60B7
:10133C000123FB6000233B6102237B6107F108035F
:10134C001946124800F048FB4FF67F43BB6001235F
:10135C00FB6000233B6102237B6107F10803194604
:10136C000B4800F039FB4FF46073BB600023FB604B
:10137C0001233B6107F108031946054800F02CFBDB
:10138C0000BF1837BD4680BD001002400008014068
:10139C00000C014080B582B000AF786000F08EF890
:1013AC00FFF7AEF800BF0837BD4680BD80B400AF74
:1013BC0072B600BFFEE7000080B483B000AF786067
:1013CC00074B1B687A6892FBF3F3064A1360064BD3
:1013DC0000221A6000BF0C37BD4680BC704700BFAE
:1013EC005800002094000020A800002080B483B096
:1013FC0000AF7860074B1B687A6892FBF3F3064AE0
:10140C001360064B00221A6000BF0C37BD4680BC2F
:10141C00704700BF5800002098000020AC0000204E
:10142C0080B483B000AF7860074B1B687A6892FB7E
:10143C00F3F3064A1360064B00221A6000BF0C3708
:10144C00BD4680BC704700BF580000209C000020A7
:10145C00B000002080B483B000AF7860074B1B68ED
:10146C007A6892FBF3F3064A1360064B00221A606B
:10147C0000BF0C37BD4680BC704700BF5800002031
:10148C00A0000020B400002080B483B000AF7860CE
:10149C00074B1B687A6892FBF3F3064A1360064B02
:1014AC0000221A6000BF0C37BD4680BC704700BFDD
:1014BC0058000020A4000020B800002080B400AF29
:1014CC00294B1B68002B0BDD274B1B68013B264A65
:1014DC001360254B1B68002B02DC244B01221A6085
:1014EC00234B1B68002B0BDD214B1B68013B204A57
:1014FC0013601F4B1B68002B02DC1E4B01221A6071
:10150C001D4B1B68002B0BDD1B4B1B68013B1A4A48
:10151C001360194B1B68002B02DC184B01221A605C
:10152C00174B1B68002B0BDD154B1B68013B144A3A
:10153C001360134B1B68002B02DC124B01221A6048
:10154C00114B1B68002B0BDD0F4B1B68013B0E4A2C
:10155C0013600D4B1B68002B02DC0C4B01221A6034
:10156C0000BFBD4680BC704794000020A80000203E
:10157C0098000020AC0000209C000020B00000204F
:10158C00A0000020B4000020A4000020B80000201F
:10159C0080B485B000AF154B9B69144A43F001032E
:1015AC009361124B9B6903F00103BB60BB680F4B4B
:1015BC00DB690E4A43F08053D3610C4BDB6903F0BB
:1015CC0080537B607B680A4B5B68FB60FB6823F095
:1015DC00E063FB60FB6843F08063FB60044AFB68DC
:1015EC00536000BF1437BD4680BC704700100240EA
:1015FC000000014080B584B000AF78607B681B6848
:10160C00B3F1804F13D10C4BDB690B4A43F0010350
:10161C00D361094BDB6903F00103FB60FB6800221B
:10162C0000211C2000F0A1F91C2000F0BAF900BF29
:10163C001037BD4680BD00BF0010024080B400AF23
:10164C00FEE780B400AFFEE780B400AFFEE780B4E5
:10165C0000AFFEE780B400AFFEE780B400AF00BF80
:10166C00BD4680BC704780B400AF00BFBD4680BC97
:10167C00704780B400AF00BFBD4680BC704780B5DA
:10168C0000AF00F07FF800BF80BD000080B500AF58
:10169C00024800F0E7FF00BF80BD00BFC40000207F
:1016AC0080B400AF00BFBD4680BC70470C480D49EC
:1016BC000D4A002302E0D458C4500433C4188C42A1
:1016CC00F9D30A4A0A4C002301E013600432A24207
:1016DC00FBD3FFF7E5FF01F00DFBFFF733FD704780
:1016EC000000002068000020982D000868000020F1
:1016FC0010010020FEE7000080B500AF084B1B680E
:10170C00074A43F010031360032000F023F90F2065
:10171C0000F008F8FFF73CFF0023184680BD00BF1F
:10172C000020024080B582B000AF7860124B1A687E
:10173C00124B1B7819464FF47A73B3FBF1F3B2FBDF
:10174C00F3F3184600F03BF90346002B01D00123BC
:10175C000EE07B680F2B0AD8002279684FF0FF301F
:10176C0000F003F9064A7B681360002300E00123B4
:10177C0018460837BD4680BD5C0000206400002080
:10178C006000002080B400AF054B1B781A46054B57
:10179C001B681344034A136000BFBD4680BC7047EE
:1017AC00640000200C01002080B400AF024B1B68C9
:1017BC001846BD4680BC70470C01002080B485B033
:1017CC0000AF78607B6803F00703FB600C4BDB68B1
:1017DC00BB60BA684FF6FF031340BB60FB681A028C
:1017EC00BB68134343F0BF6343F40033BB60044A4C
:1017FC00BB68D36000BF1437BD4680BC704700BFC8
:10180C0000ED00E080B400AF044BDB681B0A03F072
:10181C0007031846BD4680BC704700BF00ED00E0D2
:10182C0080B483B000AF0346FB7197F90730002BEF
:10183C000BDBFB7903F01F02064997F907305B09B4
:10184C00012000FA02F241F8232000BF0C37BD46FC
:10185C0080BC704700E100E080B483B000AF034669
:10186C003960FB7197F90730002B0ADB3B68DAB261
:10187C000C4997F907301201D2B20B4483F80023BC
:10188C000AE03B68DAB20849FB7903F00F03043B2A
:10189C001201D2B20B441A7600BF0C37BD4680BC85
:1018AC00704700BF00E100E000ED00E080B489B0BB
:1018BC0000AFF860B9607A60FB6803F00703FB6166
:1018CC00FB69C3F10703042B28BF0423BB61FB692D
:1018DC000433062B02D9FB69033B00E000237B6138
:1018EC004FF0FF32BB6902FA03F3DA43BB681A40CC
:1018FC007B699A404FF0FF317B6901FA03F3D943BE
:10190C007B680B40134318462437BD4680BC704798
:10191C0080B582B000AF78607B68013BB3F1807F0B
:10192C0001D301230FE00A4A7B68013B53600F216E
:10193C004FF0FF30FFF790FF054B00229A60044BED
:10194C0007221A60002318460837BD4680BD00BF29
:10195C0010E000E080B582B000AF78607868FFF7E7
:10196C002DFF00BF0837BD4680BD80B586B000AFE7
:10197C000346B9607A60FB7300237B61FFF742FF7B
:10198C0078617A68B9687869FFF790FF024697F931
:10199C000F3011461846FFF75FFF00BF1837BD46E2
:1019AC0080BD80B582B000AF0346FB7197F907305C
:1019BC001846FFF735FF00BF0837BD4680BD80B520
:1019CC0082B000AF78607868FFF7A2FF0346184634
:1019DC000837BD4680BD000080B48BB000AF786086
:1019EC00396000237B6200233B6248E101227B6A61
:1019FC0002FA03F3FB613B681B68FA691340BB6195
:101A0C00BA69FB699A4240F037813B685B68A34A2C
:101A1C0093425ED0A14A934275D8A14A934258D0C2
:101A2C009F4A93426FD89F4A934252D09D4A934209
:101A3C0069D89D4A93424CD09B4A934263D89B4AA7
:101A4C00934246D0994A93425DD8122B2AD8122B36
:101A5C0059D801A252F823F0DF1A0008B91A00086D
:101A6C00CB1A00080D1B0008131B0008131B0008E1
:101A7C00131B0008131B0008131B0008131B000882
:101A8C00131B0008131B0008131B0008131B000872
:101A9C00131B0008131B0008131B0008C11A0008B5
:101AAC00D51A0008824A934213D02CE03B68DB68BD
:101ABC003B6229E03B68DB6804333B6224E03B6813
:101ACC00DB6808333B621FE03B68DB680C333B622E
:101ADC001AE03B689B68002B02D104233B6213E0A5
:101AEC003B689B68012B05D108233B627B68FA6934
:101AFC001A6109E008233B627B68FA695A6103E0CA
:101B0C0000233B6200E000BFBB69FF2B01D87B6860
:101B1C0001E07B6804337B61BB69FF2B02D87B6AD5
:101B2C009B0002E07B6A083B9B003B617B691A6867
:101B3C000F213B6901FA03F3DB431A40396A3B6915
:101B4C0001FA03F31A437B691A603B685B6803F084
:101B5C008053002B00F09080564B9B69554A43F004
:101B6C0001039361534B9B6903F00103BB60BB689A
:101B7C00514A7B6A9B08023352F82330FB607B6A24
:101B8C0003F003039B000F2202FA03F3DB43FA6812
:101B9C001340FB607B68494A93420DD07B68484AEE
:101BAC00934207D07B68474A934201D1022304E059
:101BBC00032302E0012300E000237A6A02F003020F
:101BCC0092009340FA681343FB603B497B6A9B0885
:101BDC000233FA6841F823203B685B6803F48033D6
:101BEC00002B06D0384B1A683749BB6913430B607E
:101BFC0006E0354B1A68BB69DB43334913400B6075
:101C0C003B685B6803F40033002B06D02E4B5A68FC
:101C1C002D49BB6913434B6006E02B4B5A68BB69DB
:101C2C00DB43294913404B603B685B6803F480132A
:101C3C00002B06D0244B9A682349BB6913438B6055
:101C4C0006E0214B9A68BB69DB431F4913408B604C
:101C5C003B685B6803F40013002B06D01A4BDA6860
:101C6C001949BB691343CB6006E0174BDA68BB69B3
:101C7C00DB4315491340CB607B6A01337B623B68C5
:101C8C001A687B6A22FA03F3002B7FF4AFAE00BF15
:101C9C0000BF2C37BD4680BC704700BF000032101F
:101CAC000000311000002210000021100000121062
:101CBC00000011100010024000000140000801401B
:101CCC00000C0140001001400004014080B485B0BC
:101CDC0000AF78600B467B807B689A687B881340EA
:101CEC00002B02D00123FB7301E00023FB73FB7B71
:101CFC0018461437BD4680BC704780B483B000AF23
:101D0C0078600B467B8013467B707B78002B03D06E
:101D1C007A887B681A6103E07B881A047B681A61F5
:101D2C0000BF0C37BD4680BC704780B485B000AF97
:101D3C0078600B467B807B68DB68FB607A88FB688D
:101D4C0013401A04FB68D9437B880B401A437B6809
:101D5C001A6100BF1437BD4680BC704780B586B091
:101D6C0000AF78607B68002B01D101236CE27B68AB
:101D7C001B6803F00103002B00F08780924B5B681B
:101D8C0003F00C03042B0CD08F4B5B6803F00C039B
:101D9C00082B12D18C4B5B6803F48033B3F5803F76
:101DAC000BD1894B1B6803F40033002B6CD07B6880
:101DBC005B68002B68D1012346E27B685B68B3F556
:101DCC00803F06D1804B1B687F4A43F480331360FD
:101DDC002EE07B685B68002B0CD17B4B1B687A4A2E
:101DEC0023F480331360784B1B68774A23F48023E9
:101DFC0013601DE07B685B68B3F5A02F0CD1724BB0
:101E0C001B68714A43F4802313606F4B1B686E4A46
:101E1C0043F4803313600BE06B4B1B686A4A23F46A
:101E2C0080331360684B1B68674A23F4802313606C
:101E3C007B685B68002B13D0FFF7B6FC386108E0B9
:101E4C00FFF7B2FC02463B69D31A642B01D903237A
:101E5C00FAE15D4B1B6803F40033002BF0D014E067
:101E6C00FFF7A2FC386108E0FFF79EFC02463B69D5
:101E7C00D31A642B01D90323E6E1534B1B6803F4FB
:101E8C000033002BF0D100E000BF7B681B6803F02F
:101E9C000203002B63D04C4B5B6803F00C03002B4C
:101EAC000BD0494B5B6803F00C03082B1CD1464B41
:101EBC005B6803F48033002B16D1434B1B6803F093
:101ECC000203002B05D07B681B69012B01D0012379
:101EDC00BAE13D4B1B6823F0F8027B685B69DB00C1
:101EEC00394913430B603AE07B681B69002B20D007
:101EFC00364B01221A60FFF757FC386108E0FFF7F8
:101F0C0053FC02463B69D31A022B01D903239BE1F4
:101F1C002D4B1B6803F00203002BF0D02A4B1B68DF
:101F2C0023F0F8027B685B69DB00274913430B60E5
:101F3C0015E0264B00221A60FFF736FC386108E0EA
:101F4C00FFF732FC02463B69D31A022B01D903235B
:101F5C007AE11D4B1B6803F00203002BF0D17B6868
:101F6C001B6803F00803002B3AD07B689B69002B9D
:101F7C0019D0174B01221A60FFF716FC386108E0E4
:101F8C00FFF712FC02463B69D31A022B01D903233B
:101F9C005AE10D4B5B6A03F00203002BF0D00120D9
:101FAC0000F0A6FA1CE00A4B00221A60FFF7FCFBBB
:101FBC0038610FE0FFF7F8FB02463B69D31A022B9E
:101FCC0008D9032340E100BF001002400000424248
:101FDC00800442429E4B5B6A03F00203002BE9D162
:101FEC007B681B6803F00403002B00F0A680002321
:101FFC00FB75974BDB6903F08053002B0DD1944B91
:10200C00DB69934A43F08053D361914BDB6903F056
:10201C008053BB60BB680123FB758E4B1B6803F4BC
:10202C008073002B18D18B4B1B688A4A43F4807346
:10203C001360FFF7B9FB386108E0FFF7B5FB024608
:10204C003B69D31A642B01D90323FDE0814B1B6838
:10205C0003F48073002BF0D07B68DB68012B06D176
:10206C007B4B1B6A7A4A43F0010313622DE07B68B9
:10207C00DB68002B0CD1764B1B6A754A23F00103ED
:10208C001362734B1B6A724A23F0040313621CE045
:10209C007B68DB68052B0CD16D4B1B6A6C4A43F0DB
:1020AC00040313626A4B1B6A694A43F0010313620F
:1020BC000BE0674B1B6A664A23F001031362644B07
:1020CC001B6A634A23F0040313627B68DB68002BF2
:1020DC0015D0FFF769FB38610AE0FFF765FB024694
:1020EC003B69D31A41F28832934201D90323ABE006
:1020FC00574B1B6A03F00203002BEED014E0FFF7E2
:10210C0053FB38610AE0FFF74FFB02463B69D31AD9
:10211C0041F28832934201D9032395E04C4B1B6A60
:10212C0003F00203002BEED1FB7D012B05D1484BB4
:10213C00DB69474A23F08053D3617B68DB69002B52
:10214C0000F08180424B5B6803F00C03082B61D0DC
:10215C007B68DB69022B46D13F4B00221A60FFF7EC
:10216C0023FB386108E0FFF71FFB02463B69D31ADB
:10217C00022B01D9032367E0354B1B6803F0007376
:10218C00002BF0D17B681B6AB3F5803F08D1304B34
:10219C005B6823F400327B689B682D4913434B60CA
:1021AC002B4B5B6823F474127B68196A7B685B6A3F
:1021BC000B43274913434B60274B01221A60FFF74F
:1021CC00F3FA386108E0FFF7EFFA02463B69D31ADD
:1021DC00022B01D9032337E01D4B1B6803F000735E
:1021EC00002BF0D02FE01C4B00221A60FFF7DCFA1A
:1021FC00386108E0FFF7D8FA02463B69D31A022B84
:10220C0001D9032320E0124B1B6803F00073002B51
:10221C00F0D118E07B68DB69012B01D1012313E0BD
:10222C000B4B5B68FB60FB6803F480327B681B6ABA
:10223C009A4206D1FB6803F470127B685B6A9A427F
:10224C0001D0012300E0002318461837BD4680BD9D
:10225C0000100240007000406000424280B584B023
:10226C0000AF786039607B68002B01D10123D0E08E
:10227C006A4B1B6803F007033A689A4210D9674B04
:10228C001B6823F0070265493B6813430B60634BE3
:10229C001B6803F007033A689A4201D00123B8E0A7
:1022AC007B681B6803F00203002B20D07B681B6843
:1022BC0003F00403002B05D0594B5B68584A43F4D8
:1022CC00E06353607B681B6803F00803002B05D0A8
:1022DC00534B5B68524A43F460535360504B5B68FA
:1022EC0023F0F0027B689B684D4913434B607B687D
:1022FC001B6803F00103002B40D07B685B68012B4B
:10230C0007D1474B1B6803F40033002B15D1012375
:10231C007FE07B685B68022B07D1414B1B6803F0A5
:10232C000073002B09D1012373E03D4B1B6803F0B4
:10233C000203002B01D101236BE0394B5B6823F0C6
:10234C0003027B685B68364913434B60FFF72CFA3A
:10235C00F8600AE0FFF728FA0246FB68D31A41F24C
:10236C008832934201D9032353E02D4B5B6803F071
:10237C000C027B685B689B009A42EBD1274B1B6875
:10238C0003F007033A689A4210D2244B1B6823F0DF
:10239C00070222493B6813430B60204B1B6803F078
:1023AC0007033A689A4201D0012332E07B681B682C
:1023BC0003F00403002B08D0194B5B6823F4E06294
:1023CC007B68DB68164913434B607B681B6803F022
:1023DC000803002B09D0124B5B6823F460527B6816
:1023EC001B69DB000E4913434B6000F021F80246D9
:1023FC000B4B5B681B0903F00F030A49CB5C22FAF9
:10240C0003F3094A1360094B1B681846FFF78AF956
:10241C00002318461037BD4680BD00BF0020024087
:10242C0000100240802D00085C000020600000209D
:10243C0090B48AB000AF2A4B3C1D0FCB84E80F0040
:10244C0040F201233B800023FB610023BB6100238E
:10245C007B6200237B6100233B62224B5B68FB6148
:10246C00FB6903F00C03042B02D0082B03D02DE0E6
:10247C001D4B3B622DE0FB699B0C03F00F0307F136
:10248C002802134413F8243C7B61FB6903F480336A
:10249C00002B13D0134B5B685B0C03F0010307F1AB
:1024AC002802134413F8283CBB617B690E4A02FBDB
:1024BC0003F2BB69B2FBF3F37B6204E07B690B4A6A
:1024CC0002FB03F37B627B6A3B6202E0064B3B62DE
:1024DC0000BF3B6A18462837BD4690BC704700BF0A
:1024EC00702D00080010024000127A0000093D0017
:1024FC0080B485B000AF78600A4B1B680A4AA2FB17
:10250C0003235B0A7A6802FB03F3FB6000BFFB68E2
:10251C005A1EFA60002BF9D100BF00BF1437BD461C
:10252C0080BC70475C000020D34D621080B582B037
:10253C0000AF78607B68002B01D1012341E07B6800
:10254C0093F83D30DBB2002B06D17B68002283F878
:10255C003C207868FFF74EF87B68022283F83D2018
:10256C007B681A687B6804331946104600F06AFAD7
:10257C007B68012283F846207B68012283F83E2089
:10258C007B68012283F83F207B68012283F840207E
:10259C007B68012283F841207B68012283F842206A
:1025AC007B68012283F843207B68012283F8442056
:1025BC007B68012283F845207B68012283F83D204B
:1025CC00002318460837BD4680BD000080B485B096
:1025DC0000AF78607B6893F83D30DBB2012B01D003
:1025EC00012335E07B68022283F83D207B681B6861
:1025FC00DA687B681B6842F00102DA607B681B6852
:10260C00164A934209D07B681B68B3F1804F04D003
:10261C007B681B68124A934211D17B681B689B68CC
:10262C0003F00703FB60FB68062B10D07B681B686C
:10263C001A687B681B6842F001021A6007E07B682D
:10264C001B681A687B681B6842F001021A60002341
:10265C0018461437BD4680BC704700BF002C0140A3
:10266C000004004080B582B000AF78607B681B68C6
:10267C001B6903F00203022B22D17B681B68DB6809
:10268C0003F00203022B1BD17B681B686FF0020264
:10269C001A617B6801221A777B681B689B6903F0BF
:1026AC000303002B03D0786800F0B1F905E07868DB
:1026BC0000F0A4F9786800F0B3F97B6800221A776F
:1026CC007B681B681B6903F00403042B22D17B6815
:1026DC001B68DB6803F00403042B1BD17B681B68AD
:1026EC006FF004021A617B6802221A777B681B6800
:1026FC009B6903F44073002B03D0786800F087F9D2
:10270C0005E0786800F07AF9786800F089F97B6860
:10271C0000221A777B681B681B6903F00803082BDF
:10272C0022D17B681B68DB6803F00803082B1BD1E4
:10273C007B681B686FF008021A617B6804221A77A9
:10274C007B681B68DB6903F00303002B03D07868FC
:10275C0000F05DF905E0786800F050F9786800F059
:10276C005FF97B6800221A777B681B681B6903F092
:10277C001003102B22D17B681B68DB6803F010035D
:10278C00102B1BD17B681B686FF010021A617B68E1
:10279C0008221A777B681B68DB6903F44073002BF3
:1027AC0003D0786800F033F905E0786800F026F97A
:1027BC00786800F035F97B6800221A777B681B6813
:1027CC001B6903F00103012B0ED17B681B68DB68CE
:1027DC0003F00103012B07D17B681B686FF001022A
:1027EC001A617868FEF7D6FD7B681B681B6903F0DD
:1027FC008003802B0ED17B681B68DB6803F08003A1
:10280C00802B07D17B681B686FF080021A61786897
:10281C0000F067FA7B681B681B6903F04003402BD0
:10282C000ED17B681B68DB6803F04003402B07D19B
:10283C007B681B686FF040021A61786800F0F9F849
:10284C007B681B681B6903F02003202B0ED17B686F
:10285C001B68DB6803F02003202B07D17B681B6807
:10286C006FF020021A61786800F032FA00BF083766
:10287C00BD4680BD80B584B000AF786039607B68A0
:10288C0093F83C30012B01D10223B3E07B68012289
:10289C0083F83C207B68022283F83D207B681B6810
:1028AC009B68FB60FB6823F07703FB60FB6823F4F9
:1028BC007F43FB607B681B68FA689A603B681B6807
:1028CC00B3F5005F3ED0B3F5005F00F28780B3F53F
:1028DC00805F00F08580B3F5805F7FD8702B1AD0B5
:1028EC00702B7BD8602B50D0602B77D8502B3CD0E2
:1028FC00502B73D8402B58D0402B6FD8302B64D032
:10290C00302B6BD8202B60D0202B67D8002B5CD0C1
:10291C00102B5AD062E07B6818683B6899683B685A
:10292C005A683B68DB6800F05CF97B681B689B6845
:10293C00FB60FB6843F07703FB607B681B68FA68FD
:10294C009A604EE07B6818683B6899683B685A68E7
:10295C003B68DB6800F045F97B681B689A687B680C
:10296C001B6842F480429A603BE07B6818683B68C5
:10297C0059683B68DB681A4600F0BCF87B681B683A
:10298C005021184600F013F92BE07B6818683B685F
:10299C0059683B68DB681A4600F0DAF87B681B68FC
:1029AC006021184600F003F91BE07B6818683B684F
:1029BC0059683B68DB681A4600F09CF87B681B681A
:1029CC004021184600F0F3F80BE07B681A683B686E
:1029DC001B681946104600F0EAF802E000BF00E060
:1029EC0000BF7B68012283F83D207B68002283F8BE
:1029FC003C20002318461037BD4680BD80B483B000
:102A0C0000AF786000BF0C37BD4680BC704780B407
:102A1C0083B000AF786000BF0C37BD4680BC7047F8
:102A2C0080B483B000AF786000BF0C37BD4680BC6B
:102A3C00704780B483B000AF786000BF0C37BD46E0
:102A4C0080BC704780B485B000AF786039607B681B
:102A5C001B68FB607B68254A934207D07B68B3F107
:102A6C00804F03D07B68224A934208D1FB6823F045
:102A7C007003FB603B685B68FA681343FB607B6820
:102A8C001A4A934207D07B68B3F1804F03D07B681E
:102A9C00174A934208D1FB6823F44073FB603B68F0
:102AAC00DB68FA681343FB60FB6823F080023B6829
:102ABC005B691343FB607B68FA681A603B689A6831
:102ACC007B68DA623B681A687B689A627B68074AA3
:102ADC00934203D13B681A697B681A637B680122B5
:102AEC005A6100BF1437BD4680BC7047002C0140B2
:102AFC000004004080B487B000AFF860B9607A6021
:102B0C00FB681B6A7B61FB681B6A23F00102FB6894
:102B1C001A62FB689B693B613B6923F0F0033B61E4
:102B2C007B681B013A6913433B617B6923F00A0301
:102B3C007B617A69BB6813437B61FB683A699A6174
:102B4C00FB687A691A6200BF1C37BD4680BC7047AF
:102B5C0080B487B000AFF860B9607A60FB681B6A1C
:102B6C0023F01002FB681A62FB689B697B61FB68AF
:102B7C001B6A3B617B6923F470437B617B681B039D
:102B8C007A6913437B613B6923F0A0033B61BB680B
:102B9C001B013A6913433B61FB687A699A61FB68D4
:102BAC003A691A6200BF1C37BD4680BC704780B4BE
:102BBC0085B000AF786039607B689B68FB60FB6810
:102BCC0023F07003FB603A68FB68134343F0070380
:102BDC00FB607B68FA689A6000BF1437BD4680BC06
:102BEC00704780B487B000AFF860B9607A603B6022
:102BFC00FB689B687B617B6923F47F437B613B684B
:102C0C001A027B681A43BB6813437A6913437B61CE
:102C1C00FB687A699A6000BF1C37BD4680BC704760
:102C2C0080B485B000AF786039607B6893F83C3035
:102C3C00012B01D1022341E07B68012283F83C2067
:102C4C007B68022283F83D207B681B685B68FB6015
:102C5C007B681B689B68BB60FB6823F07003FB60A0
:102C6C003B681B68FA681343FB607B681B68FA6857
:102C7C005A607B681B68144A934209D07B681B68B6
:102C8C00B3F1804F04D07B681B68104A93420CD17F
:102C9C00BB6823F08003BB603B685B68BA68134376
:102CAC00BB607B681B68BA689A607B68012283F8FA
:102CBC003D207B68002283F83C2000231846143703
:102CCC00BD4680BC704700BF002C01400004004092
:102CDC0080B483B000AF786000BF0C37BD4680BCB9
:102CEC00704780B483B000AF786000BF0C37BD462E
:102CFC0080BC704770B500260C4D0D4C641BA410A5
:102D0C00A64209D100F022F800260A4D0A4C641B99
:102D1C00A410A64205D170BD55F8043B9847013666
:102D2C00EEE755F8043B98470136F2E7902D000882
:102D3C00902D0008902D0008942D000803460244A5
:102D4C00934200D1704703F8011BF9E7F8B500BFB7
:102D5C00F8BC08BC9E467047F8B500BFF8BC08BC70
:042D6C009E467047C8
:102D700002030405060708090A0B0C0D0E0F1010BC
:102D8000000000000000000001020304060708091B
:042D90003101000805
:042D94000D01000825
:102D98000100000001000000010000000100000027
:102DA8000100000001000000010000000100000017
:102DB8000100000001000000010000000100000007
:102DC800B80B000088130000B80B0000D007000003
:102DD80005000000030000000200000005000000DC
:102DE80003000000020000000A0000000024F400B4
:082DF8001000000001000000C2
:04000005080016B920
:00000001FF
